:020000040800F2
:100000000050002099020008E9020008E9020008F7
:10001000E9020008E9020008E90200080000000007
:10002000000000000000000000000000E9020008DD
:10003000E902000800000000E9020008E9020008E7
:10004000E9020008E9020008E9020008E9020008E4
:10005000E9020008E9020008E9020008E9020008D4
:10006000E9020008E9020008E9020008E9020008C4
:10007000E9020008E9020008E9020008E9020008B4
:10008000E9020008E9020008E9020008E9020008A4
:10009000E9020008E9020008E9020008E902000894
:1000A000E9020008E9020008E9020008E902000884
:1000B000E9020008E9020008E9020008E902000874
:1000C000E9020008E9020008E9020008E902000864
:1000D000E9020008E9020008E9020008E902000854
:1000E000E9020008E902000800000000E902000837
:1000F000E9020008E9020008E9020008E902000834
:10010000E9020008E9020008E9020008E902000823
:10011000E9020008E9020008E9020008E902000813
:10012000E9020008E9020008E9020008E902000803
:1001300010B5054C237833B9044B13B10448AFF321
:1001400000800123237010BD00000020000000008B
:100150003403000808B5034B1BB103490348AFF350
:10016000008008BD000000000400002034030008E7
:1001700080B400AF444B1B68434A43F480331360A0
:10018000414B9B69404A43F01C0393613F4B1B6802
:100190003E4AC3F3130313603C4B1B683B4A43F0D6
:1001A000085343F400131360384B5B68374A23F459
:1001B0007F435360354B5B68344A43F408435360D4
:1001C000334B1B68324A23F470231360304B1B6897
:1001D0002F4A43F4002313602E4B5B682D4A23F40F
:1001E000700353602B4B5B682A4A43F4001353603F
:1001F000284BDB68274A23F40053D360244BDB6889
:10020000234A23F0E003D360224BDB68214A43F406
:100210000053D3601E4B9B6803F01003002B06D0E5
:100220001A4BDB68194A43F08003D36005E0174B93
:10023000DB68164A23F08003D360144B9B6803F4F9
:100240008063002B06D0114BDB68104A43F020037B
:10025000D36005E00D4BDB680C4A23F02003D3602C
:100260000A4B9B6803F40063002B06D0074BDB6846
:10027000064A43F04003D360CCE7044BDB68034AF3
:1002800023F04003D360C5E700100240000801409E
:10029000000C0140001001400D488546AFF300807E
:1002A0000C480D490D4A002302E0D458C4500433D1
:1002B000C4188C42F9D30A4A0A4C002301E01360A7
:1002C0000432A242FBD300F011F8FFF751FFFEE722
:1002D000005000200000002000000020540300080F
:1002E000000000201C000020FEE7000070B5002682
:1002F0000C4D0D4C641BA410A64209D100F01AF855
:1003000000260A4D0A4C641BA410A64205D170BDFC
:1003100055F8043B98470136EEE755F8043B9847FB
:100320000136F2E74C0300084C0300084C030008B8
:1003300050030008F8B500BFF8BC08BC9E467047E3
:0C034000F8B500BFF8BC08BC9E46704732
:04034C00550100084F
:04035000310100086F
:040000050800029954
:00000001FF
