:020000040800F2
:100000000050002039030008890300088903000814
:100010008903000889030008890300080000000024
:10002000000000000000000000000000890300083C
:100030008903000800000000890300088903000804
:100040008903000889030008890300088903000860
:100050008903000889030008FD0100082502000843
:100060008903000889030008890300088903000840
:100070008903000889030008890300088903000830
:100080008903000889030008890300088903000820
:100090008903000889030008890300088903000810
:1000A0008903000889030008890300088903000800
:1000B00089030008890300088903000889030008F0
:1000C00089030008890300088903000889030008E0
:1000D00089030008890300088903000889030008D0
:1000E0008903000889030008000000008903000854
:1000F00089030008890300088903000889030008B0
:10010000890300088903000889030008890300089F
:10011000890300088903000889030008890300088F
:10012000890300088903000889030008890300087F
:1001300010B5054C237833B9044B13B10448AFF321
:1001400000800123237010BD00000020000000008B
:10015000D403000808B5034B1BB103490348AFF3B0
:10016000008008BD0000000004000020D403000847
:1001700080B483B000AF0346FB7197F90730002BC2
:100180000BDBFB7903F01F02064997F907305B0987
:10019000012000FA02F241F8232000BF0C37BD46CF
:1001A00080BC704700E100E080B483B000AF03463C
:1001B0003960FB7197F90730002B0ADB3B68DAB234
:1001C0000C4997F907301201D2B20B4483F800238F
:1001D0000AE03B68DAB20849FB7903F00F03043BFD
:1001E0001201D2B20B441A7600BF0C37BD4680BC58
:1001F000704700BF00E100E000ED00E080B400AF18
:10020000064BDB68054A83F40053D360044B01229C
:100210005A6100BFBD4680BC704700BF001001405E
:100220000004014080B400AF064BDB68054A83F44C
:100230000053D360044B02225A6100BFBD4680BC0C
:10024000704700BF001001400004014080B500AFBE
:10025000344B9B69334A43F008039361314B9B69EC
:10026000304A43F0100393612F4B1B682E4A23F052
:10027000FF0313602C4B1B682B4A43F08803136069
:10028000294B0322DA60294B5B68284A23F4700368
:100290005360264B5B68254A43F400135360234B9D
:1002A000DB68224A23F40053D3601E4B9B691D4A2E
:1002B00043F0010393611E4B9B681D4A43F0010309
:1002C00093601B4B9B681A4A43F010039360194BD1
:1002D0009B68184A43F002039360164BDB68154A8B
:1002E00043F00103D360134B1B68124A43F0010330
:1002F0001360104B1B680F4A43F002031360102178
:100300000620FFF751FF20210720FFF74DFF0620B1
:10031000FFF72EFF0720FFF72BFF62B600BF00BFDD
:10032000FDE700BF00100240000C0140001001403A
:1003300000000140000401400D488546AFF30080F5
:100340000C480D490D4A002302E0D458C450043330
:10035000C4188C42F9D30A4A0A4C002301E0136006
:100360000432A242FBD300F011F8FFF76FFFFEE763
:10037000005000200000002000000020F4030008CE
:10038000000000201C000020FEE7000070B50026E1
:100390000C4D0D4C641BA410A64209D100F01AF8B4
:1003A00000260A4D0A4C641BA410A64205D170BD5C
:1003B00055F8043B98470136EEE755F8043B98475B
:1003C0000136F2E7EC030008EC030008EC03000838
:1003D000F0030008F8B500BFF8BC08BC9E467047A3
:0C03E000F8B500BFF8BC08BC9E46704792
:0403EC0055010008AF
:0403F00031010008CF
:0400000508000339B3
:00000001FF
